:100000000C942A000C9447000C9447000C94470071
:100010000C9447000C9447000C9447000C94470044
:100020000C9447000C9447000C9447000C94F70282
:100030000C9447000C9447000C9447000C94470024
:100040000C9447000C9447000C9447000C94470014
:100050000C94470011241FBECFE5D8E0DEBFCDBF12
:1000600010E0A8E6B0E001C01D92A43FB107E1F79F
:1000700010E0A0E6B0E0ECEDF9E002C005900D92D2
:10008000A836B107D9F70E9416010C94EC040C9421
:100090000000FC01653739F4808191810197F9F006
:1000A00083E090E011C0643639F480819181039738
:1000B000B1F081E090E008C06C3649F48081918114
:1000C000892B69F082E090E0918380830895623704
:1000D00031F480819181029711F01182108208958C
:1000E0009C0115BA12BA18BA86309105E9F4663047
:1000F000710511F480EA04C06730710531F480ECB9
:1001000088BB8FEF85BB12BA089580EE88BB615023
:10011000704081E090E002C0880F991F6A95E2F775
:10012000809585BB80E222C06630710571F480E263
:1001300088BB8FED85BB2150304081E090E002C04C
:10014000880F991F2A95E2F711C0AC014150504029
:100150006730710569F480E488BB8FEB85BB81E073
:1001600090E002C0880F991F4A95E2F782BB08957C
:1001700080E688BB6150704021E030E0C90102C0D8
:10018000880F991F6A95E2F7809585BB02C0220F00
:10019000331F4A95E2F722BB0895EF92FF920F9327
:1001A0001F93CF93DF938C01C0E0D0E030EDE32EBE
:1001B00037E0F32EF801808191818F5F9F4F89F0A6
:1001C000CE0123E0959587952A95E1F7BE016770EA
:1001D00070706F5F7F4F01960E947000C70101979A
:1001E000F1F721960E5F1F4FC034D10519F7DF914B
:1001F000CF911F910F91FF90EF90089580E487B900
:1002000087E886B9089597B18770987F892B87B959
:10021000369A3699FECF24B135B1C90108950E94AE
:10022000E80360E470E00E94700308958FEF81BBE3
:1002300084BB87BB80E487B987E886B982E090E019
:100240000E94ED03EEE6F0E080E090E04FEF5FEF1C
:1002500020E430E0823091052CF401969183808374
:1002600001970AC08230910529F4309373002093DE
:10027000720002C05183408301963296803491050A
:1002800049F781E090E09093EF008093EE0082E0E8
:1002900090E09093F3008093F2001092F10010929E
:1002A000F0000E940F0190936D0080936C00E0912C
:1002B0006C00F0916D00EE0FFF1FE259FF4F80813F
:1002C00091818F5F9F4F69F781E490E091838083F4
:1002D00083B7816083BF83B78D7F83BF83B78B7FF5
:1002E00083BF789489B7816089BF12BE8EE690E0A3
:1002F0000E94CD00EDCFEF92FF920F931F93CF930B
:10030000DF938C01EA0179016115710509F052C092
:10031000E881F9819F012F5F3F4FC901877090707D
:10032000892B09F446C0EE0FFF1FE00FF11F318348
:100330002083E881F9813196EE0FFF1FE00FF11F56
:100340000190F081E02DE134F105D9F40E940F0114
:1003500090936D0080936C0006C00E944B047093D4
:100360006D0060936C00E0916C00F0916D00EE0FF9
:10037000FF1FE00FF11F808191818F5F9F4F69F711
:1003800007C0EF5FFF4F19F420E030E003C0FFCF5C
:1003900021E030E0E881F9813196EE0FFF1FE00F98
:1003A000F11F80E490E09183808388819981019698
:1003B000F5C0FFCF6130710509F04FC08881998188
:1003C000883391050CF048C0FC01EE0FFF1FE00FD1
:1003D000F11F089691838083E881F9813896EE0FAA
:1003E000FF1FE00FF11F0190F081E02DE134F105D6
:1003F000D9F40E940F0190936D0080936C0006C0A9
:100400000E944B0470936D0060936C00E0916C004F
:10041000F0916D00EE0FFF1FE00FF11F80819181C1
:100420008F5F9F4F69F707C0EF5FFF4F19F420E020
:1004300030E003C0FFCF21E030E0E881F981389659
:10044000EE0FFF1FE00FF11F80E490E091838083A7
:10045000888199810896A2C0FFCF6230710509F0AA
:1004600052C028813981C90187709070892B09F4A5
:1004700049C0F901EE0FFF1FE00FF11F215030407E
:1004800031832083E881F9813197EE0FFF1FE00F60
:10049000F11F0190F081E02DE134F105D9F40E94C3
:1004A0000F0190936D0080936C0006C00E944B0476
:1004B00070936D0060936C00E0916C00F0916D00A2
:1004C000EE0FFF1FE00FF11F808191818F5F9F4F23
:1004D00069F707C0EF5FFF4F19F420E030E003C079
:1004E000FFCF21E030E0E881F9813197EE0FFF1F67
:1004F000E00FF11F80E490E09183808388819981EF
:1005000001974CC0FFCF6330710509F05DC0888151
:100510009981883091050CF456C0FC01EE0FFF1F45
:10052000E00FF11F089791838083E881F981389764
:10053000EE0FFF1FE00FF11F808191818134910543
:1005400019F020E030E01CC00E940F0190936D0074
:1005500080936C0006C00E944B0470936D00609302
:100560006C00E0916C00F0916D00EE0FFF1FE00F4A
:10057000F11F808191818F5F9F4F69F721E030E00B
:10058000E881F9813897EE0FFF1FE00FF11F80E43B
:1005900090E09183808388819981089799838883EB
:1005A000D701ED91FC911197232B71F4EE0FFF1FF2
:1005B000E00FF11F808191818D939C938FEF9FEFCE
:1005C0009183808301C0FFCFE0916C00F0916D00BA
:1005D000EE0FFF1FE00FF11F81E490E09183808315
:1005E000DF91CF911F910F91FF90EF9008951F928F
:1005F0000F920FB60F9211242F933F934F935F9357
:100600006F937F938F939F93AF93BF93EF93FF93DA
:1006100080916800909169000196909369008093A1
:100620006800059778F580916A0090916B00892B9E
:1006300049F580E00E9403018436910520F48EEE96
:1006400090E065E71DC080E00E9403018C59934053
:1006500020F08EEE90E064E613C081E00E9403017A
:100660008436910520F48EEE90E062E709C081E0C7
:100670000E9403018C59934028F08EEE90E06CE6C6
:100680000E944900809168009091690084589E41C1
:10069000B1F480916A0090916B00892B81F4609194
:1006A000EE007091EF008EE690E042EF50E020EF18
:1006B00030E00E947B011092690010926800FF9167
:1006C000EF91BF91AF919F918F917F916F915F91CA
:1006D0004F913F912F910F900FBE0F901F90189543
:1006E00097FB092E07260AD077FD04D00CD006D040
:1006F00000201AF4709561957F4F0895F6F7909554
:1007000081959F4F0895AA1BBB1B51E107C0AA1FEB
:10071000BB1FA617B70710F0A61BB70B881F991FA2
:100720005A95A9F780959095BC01CD010895A0E058
:10073000B0E0EDE9F3E00C949B04EC01A880B980F3
:10074000CA80DB80A114B104C104D10441F484E265
:10075000A82E89EDB82E8BE5C82E87E0D82EC601CD
:10076000B5012DE133EF41E050E00E94780427EA23
:1007700031E440E050E00E9459047B018C01C60145
:10078000B5012DE133EF41E050E00E947804CA0149
:10079000B9012CEE34EF4FEF5FEF0E9459046E0D5C
:1007A0007F1D801F911F97FF04C0615070408040E3
:1007B0009048688379838A839B839B013F77C90133
:1007C000CDB7DEB7EAE00C94B7040E949703089512
:1007D00080E690E00E9497030895A0E0B0E0809347
:1007E000600090936100A0936200B093630008954D
:1007F000A0E0B0E0EEEFF3E00C949B04EC01A880E5
:10080000B980CA80DB80A114B104C104D10441F4D1
:1008100084E2A82E89EDB82E8BE5C82E87E0D82E6D
:10082000C601B5012DE133EF41E050E00E947804AC
:1008300027EA31E440E050E00E9459047B018C013A
:10084000C601B5012DE133EF41E050E00E9478048C
:10085000CA01B9012CEE34EF4FEF5FEF0E9459044B
:100860006E0D7F1D801F911F97FF04C06150704067
:1008700080409048688379838A839B839B01AC0185
:100880005F77B901CA01CDB7DEB7EAE00C94B704CF
:100890000E94F803089584E690E00E94F80308950A
:1008A0006093640070936500809366009093670086
:1008B0000895629FD001739FF001829FE00DF11DAA
:1008C000649FE00DF11D929FF00D839FF00D749FCA
:1008D000F00D659FF00D9927729FB00DE11DF91F76
:1008E000639FB00DE11DF91FBD01CF0111240895D3
:1008F00097FB092E05260ED057FD04D04BD00AD009
:10090000001C38F450954095309521953F4F4F4F3E
:100910005F4F0895F6F790958095709561957F4F9C
:100920008F4F9F4F08952F923F924F925F926F92F9
:100930007F928F929F92AF92BF92CF92DF92EF926F
:10094000FF920F931F93CF93DF93CDB7DEB7CA1BF0
:10095000DB0B0FB6F894DEBF0FBECDBF09942A881B
:10096000398848885F846E847D848C849B84AA84C3
:10097000B984C884DF80EE80FD800C811B81AA8150
:10098000B981CE0FD11D0FB6F894DEBF0FBECDBF1B
:10099000ED010895A1E21A2EAA1BBB1BFD010DC09B
:1009A000AA1FBB1FEE1FFF1FA217B307E407F5071F
:1009B00020F0A21BB30BE40BF50B661F771F881FFB
:1009C000991F1A9469F760957095809590959B0191
:0C09D000AC01BD01CF010895F894FFCFE9
:0809DC00010000000100000011
:00000001FF
